:060000000A128A110C280F
:10000800FE00030EF1000A08F2000A128A11A9285C
:100018000A128A110F280A128A119D210A128A11BE
:10002800FA00A001A101A201F801F90183010A1255
:100038008A111E280A128A112F210A128A110030E9
:10004800F600F7000A128A116B210A128A110A12A5
:100058008A1182210A128A11740883120313A700D5
:100068007308A6002708803AFF0080307F02031D2E
:100078003F28333026020318422843284928831290
:1000880003130814881407154E2883120313081045
:10009800881007117A08031D522853286A28051565
:1000A80085112C3083120313A5001F30A400D6300D
:1000B800A300A30B5D28A40B5D28A50B5D280000F9
:1000C8008312031305110230FA0085287A03031DF1
:1000D8006E286F288528851505112C308312031387
:1000E800A5001F30A400D630A300A30B7928A40BC9
:1000F8007928A50B79280000831203138511023093
:10010800FA008518882889282B28153083120313AC
:10011800A5004B30A400BD30A300A30B9128A40B6D
:100128009128A50B912898288312031385189D28D8
:100138009E28A3280130A0000030A1002B28A00190
:10014800A1012B280A128A110C28831203138C1D73
:10015800AE28AF281F291412141BB328B428B828B6
:10016800941FB728B828BD281308F900141394134E
:10017800141683160313941AC228C328DC281419EA
:10018800C628C728DC28831203131308F9008C112A
:10019800141683160313141CD228D328CD288312CF
:1001A80003131308F8002130F000F00BD9281C299C
:1001B800941ADF28E0281C29141DE328E4281C29A8
:1001C800831203131308F900831603131410780815
:1001D800031DEF28F028F52883120313260893003F
:1001E8000F297803031DF928FA28FF28831203131F
:1001F800200893000F2902307806031D04290529D9
:100208000729FA010F2903307806031D0C290D2947
:100218000F29FA01FA0A83121416A630F000F00B1F
:10022800132900008316031314181B291C291629E7
:10023800831203138C110C1F2229232928290C1F30
:100248002629272923290C1372088A00710E830096
:10025800FE0E7E0E090001308316031788008901FF
:1002680003308316031385008601870188018901FD
:1002780083120313850186018701880189015230A1
:100288000A128A1151210A128A1170308316031337
:100298008F040F148B170B170800F30073088316CD
:1002A80003139300363083120313940080308316AF
:1002B8000313940001309100871507168B170B174D
:1002C800831203138C11831603138C150800770807
:1002D800F4007608F3000A128A1191210A128A1191
:1002E800831603139F131F129F120C1783120313F5
:1002F8001F083F3980389F001F140800831203131A
:100308009F149F188829892985291E08F500F60158
:100318007508F3007608F40008007308F500F50D79
:10032800F50D831203131F087506C33975069F0060
:040338000800023483
:08400000FF3FFF3FFF3FFF3FC0
:04400E00D420FF3F7C
:00000001FF
