:060000000A128A110C280F
:10000800FE00030EF1000A08F2000A128A111E28E7
:100018000A128A110F280A128A118F210A128A11CC
:10002800FA00A001A101A201F801F90183010A1255
:100038008A11A428831203138C1D232824289428AA
:100048001412141B282829282D28941F2C282D2801
:1000580032281308F9001413941314168316031383
:10006800941A37283828512814193B283C28512835
:10007800831203131308F9008C1114168316031343
:10008800141C472848284228831203131308F80031
:100098002130F000F00B4E289128941A5428552846
:1000A8009128141D582859289128831203131308DE
:1000B800F9008316031314107808031D64286528B3
:1000C8006A28831203132608930084287803031DE3
:1000D8006E286F287428831203132008930084283D
:1000E80002307806031D79287A287C28FA018428AA
:1000F80003307806031D812882288428FA01FA0A29
:1001080083121416A630F000F00B8828000083161E
:1001180003131418902891288B28831203138C1129
:100128000C1F972898289D280C1F9B289C289828E6
:100138000C1372088A00710E8300FE0E7E0E0900F1
:100148000A128A1122210A128A110030F600F700D9
:100158000A128A115D210A128A110A128A1174215F
:100168000A128A11740883120313A7007308A600E1
:100178007A08031DC028C128D62805150B3083121C
:100188000313A5002630A4005D30A300A30BCA28E2
:10019800A40BCA28A50BCA28831203130511023021
:1001A800FA00EF287A03031DDA28DB28EF288515E3
:1001B8000B3083120313A5002630A4005D30A30082
:1001C800A30BE428A40BE428A50BE428831203134B
:1001D80085110230FA00851CF228F3280F29153002
:1001E80083120313A5004B30A400BD30A300A30B5A
:1001F800FB28A40BFB28A50BFB2802298312031359
:10020800851C072908290D290130A0000030A1000C
:100218000F29A001A101023083120313A5000430A5
:10022800A400B930A300A30B1729A40B1729A50B09
:1002380017291E29B1280A128A110C2801308316A1
:10024800031788008901033083160313850086018C
:1002580088018901831203138501860187018801BA
:10026800890152300A128A1143210A128A11703008
:10027800831603138F040F148B170B170800F30052
:100288007308831603139300363083120313940004
:1002980080308316031394000130910087150716E8
:1002A8008B170B17831203138C11831603138C15EA
:1002B80008007708F4007608F3000A128A118321EF
:1002C8000A128A11831603139F131F129F120C1709
:1002D800831203131F083F3980389F001F1408003A
:1002E800831203139F149F187A297B2977291E08E4
:1002F800F500F6017508F3007608F40008007308A5
:10030800F500F50DF50D831203131F087506C339A3
:0803180075069F000800023485
:08400000FF3FFF3FFF3FFF3FC0
:04400E00D420FF3F7C
:00000001FF
