:060000000A128A110C280F
:10000800FE00030EF7000A08F8000A128A112828D1
:100018000A128A110F28F001F101F201F301F4012B
:1000280083120313AF01B001B101B201B301B401EE
:10003800B501B601B701B801B901BA01BB01BC01EC
:1000480083010A128A114829831203138C1D2D2853
:100058002E2882281412141B322833283728941F7C
:10006800362837283C281308F40014139413141660
:1000780083160313941A4128422860281419452826
:1000880046286028831203131308F4008C111416F1
:1000980083160313141C512852284C288312031367
:1000A8001308F500F6017508B9007608BA00213082
:1000B800F500F50B5D287F28941A632864287F28AB
:1000C800141D672868287F28831203131308F40077
:1000D800831603131410831203133D089300141698
:1000E800A630F500F50B76280000831603131418C4
:1000F8007E287F287928831203138C110C1F8528EA
:1001080086288B280C1F89288A2886280C137808AB
:100118008A00770E8300FE0E7E0E090083120313F9
:10012800A501A11F98289928A028A009A109A00A1B
:100138000319A10AA501A50AA31FA328A428AD286D
:10014800A209A309A20A0319A30A0130F900790830
:10015800A506A601A701200821040319B428B5287B
:10016800EC28A401A40AC32801300310A00DA10D96
:10017800FF3E031DB9280130F9007908A407A11F23
:10018800C628C728B82801300310A60DA70DFF3EC2
:10019800031DC82821082302031DD4282008220291
:1001A800031CD728D828DF282008A2022108031C0E
:1001B800A303A302261401300310A10CA00CFF3ED8
:1001C800031DE0280130A402031DEB28EC28C728F2
:1001D80025080319F028F128F628A609A709A60A70
:1001E8000319A70A2708A1002608A00008008312FF
:1001F80003138F018E010514053083120313AA001F
:10020800AA0B04290729831203130510851C0D293D
:100218000E290A2910148518122913290F291010DC
:100228000F08BC000E08BB003A30A0000030A10047
:100238000F08AA00AB012A08AB00AA012A080E047D
:10024800A2002B08A3000A128A1192200A128A110E
:10025800831203132108BC002008BB00023083125C
:100268000313AC008630AB009830AA00AA0B3A29D9
:10027800AB0B3A29AC0B3A290000831203133C0854
:10028800A9003B08A80008000A128A1185210A1251
:100298008A110A128A11D4210A128A110A128A11A1
:1002A800C1210A128A11BB308312031395000A1266
:1002B8008A11FB200A128A11831203132908BE002F
:1002C8002808BD00823083120313AE00DD30AD0074
:1002D800AD0B6C29AE0B6C298312031339033A0456
:1002E800031D772978297B297D3095005B293908FA
:1002F8003A04031D802981295B2957290A128A118A
:100308000C28043083160317880008158901063065
:10031800831603138500860188018901831203135C
:100328008501860187018801890150300A128A11E6
:10033800A7210A128A117030831603138F040F1431
:100348008B170B170800F90079088316031393001D
:1003580036308312031394008030831603139400FD
:1003680001309100871507168B170B17831203139B
:100378008C11831603138C150800FA3083160313A7
:100388009200033083120313920412151708F039F0
:100398000C389700CF309705831603130711080010
:0A03A80010308312031390000800C8
:08400000FF3FFF3FFF3FFF3FC0
:04400E00D420FF3F7C
:00000001FF
