:100000000A128A11DD2FF6007603031D082809283D
:100010000D2874087F3EF500162802307606031D71
:100020001228132816287408BF3EF50075080A1612
:100030008A1150260A128A11080083120313E8005D
:100040004D30DF00652A2530650603192828292848
:100050003328680884006508831380000130D900C4
:100060005908E807652AE601E701E4013C28641520
:100070000130D9005908CC074C0884000A128A15AF
:100080000A200A128A11D900DA015A08003A031923
:100090004A284F285908303A031937284F284C0866
:1000A00084000A128A150A200A128A110A168A1175
:1000B000E5250A128A11031C5E285F28272983126E
:1000C0000313E601E7010A30F0000030F10083126B
:1000D00003136708F3006608F2000A168A116A26FD
:1000E0000A128A11710883120313E7007008E600F0
:1000F0004C0884000A128A150A200A128A11D03E7E
:10010000D900FF3003180030DA005908E607031859
:10011000E70A5A08E7070130D9005908CC074C080C
:1001200084000A128A150A200A128A110A168A11F4
:10013000E5250A128A1103189E289F28632827297B
:100140005F08840083130008DD00840A000884032C
:10015000DE000230D9005908DF075D085E04031D88
:10016000B228B328B728CD30DD008030DE00E001B2
:10017000E101C0280130E0070318E10A0030E1077F
:1001800060085D0784005E0803185E0AFF000A121B
:100190008A1500200A128A11003A031DD028D1289E
:1001A000BA2867086102031DD72866086002031891
:1001B000DA28DB28E2286008E6026108031CE7036E
:1001C000E702EE28E601E701EE2868088400203007
:1001D000831380000130D9005908E807FF30E60793
:1001E0000318E70AFF30E707660A031DFB28670AC2
:1001F000031DFB28FC28E52816295E08FF005D0882
:1002000084000A128A1500200A128A11D90068088F
:1002100084005908831380000130DD070318DE0ACB
:100220000030DE070130D9005908E8070130E0024C
:100230000030031CE103E102600A031D2329610A67
:10024000031D23292429FD28652A64174C29013020
:1002500083120313CC07FF304C0784000A128A155F
:100260000A200A128A11E500D900DA015A08003A78
:1002700003193B29652A5908003A0319752A643A7B
:1002800003194C290D3A03194C291A3A0319A028CD
:10029000063A03192529652A641B4F2950296A2922
:1002A0005F08840083130008E200840A0008E3006A
:1002B0000230D9005908DF07E31F5F29602976293A
:1002C0000330D9005908E404E209E309E20A0319FA
:1002D000E30A76295F08840083130008E200840A99
:1002E0000008E3000230D9005908DF07E501E50AFC
:1002F0006508D9005907013E84000A128A150A20B0
:100300000A128A11DA000A128A150A200A128A11C0
:10031000DB005B086302031D8F295A086202031881
:100320009229932994299E290130D9005908E5077B
:1003300005306506031D9D299E29782966086704F6
:100340000319A329A429B029640803390319A92989
:10035000AA29B029FF30E6070318E70AFF30E707AC
:100360006708803A803C031DB729660865020318B8
:10037000BA29BB29C729831203136508D900DA01FA
:100380005908E6025A08031CE703E702CB29831247
:100390000313E601E701641DCE29CF29FA29640879
:1003A00003390319D429D529DE29680884002D30A2
:1003B000831380000130D9005908E80766086704F4
:1003C0000319E329E429242A6808840030308313C0
:1003D00080000130D9005908E807FF30E60703180C
:1003E000E70AFF30E70766086704031DF829F929C3
:1003F000E429242A660867040319FF29002A152A1C
:10040000680884002030831380000130D900590827
:10041000E807FF30E6070318E70AFF30E70766083A
:100420006704031D142A152A002A640803390319D6
:100430001A2A1B2A242A680884002D30831380007E
:100440000130D9005908E8076508DC005C2A0A3049
:10045000F8000030F9005C08D9005907013E84001B
:100460000A128A150A200A128A11F0000A128A1545
:100470000A200A128A11F1006308F3006208F200F0
:100480000A128A1581210A128A117108FB0070086C
:10049000FA000A168A1188270A128A117808303E53
:1004A00083120313E5006808840065088313800045
:1004B0000130D9005908E807FF30D9005908DC0796
:1004C0005C0A031D642A652A272A0130CC07FF3005
:1004D0004C0784000A128A150A200A128A11E500C4
:1004E0006508031D742A752A23286808840083136D
:1004F000800108000B30CC002708CE002608CD0074
:100500002108D0002008CF002308D2002208D10003
:100510004708D300D401D31BD4034608D500D60125
:10052000D51BD6034508D700D801D71BD803A03068
:100530000A128A111D200A128A11A0300A168A1185
:1005400021260A128A11153083120313EB004B3057
:10055000EA00BD30E900E90BAB2AEA0BAB2AEB0B52
:10056000AB2AB22AA0300A168A1121260A128A1151
:10057000063083120313EB001330EA00AD30E900BC
:10058000E90BC02AEA0BC02AEB0BC02AA0300A16DE
:100590008A1121260A128A1183120313A401A501CC
:1005A000F12A24082504031DD62AD72AF12A673008
:1005B000CC002708CE002608CD002108D000200856
:1005C000CF002308D2002208D100A0300A128A11DD
:1005D0001D200A128A11A0300A168A1121260A1239
:1005E0008A11831203132908803AFF0080307F02AA
:1005F000031DFC2A0B3028020318FF2A002B9B2C1A
:10060000831203132D08031D062B072B9B2C02308E
:100610002E06031D0C2B0D2B502B0A168A1190252C
:100620000A128A115030F4000030F5000A168A11BF
:10063000A2250A128A110030F400F5000A168A1168
:10064000A2250A128A110A168A1199250A128A11FC
:10065000823083120313EA00DD30E900E90B2E2B10
:10066000EA0B2E2B0A168A11C3250A128A11BF30F3
:10067000F2008030F3000A128A153F210A128A1113
:100680001F3083120313EB007130EA001D30E900C4
:10069000E90B482BEA0B482BEB0B482B4F2B712C0B
:1006A0002E03031D542B552B742C0230AE000A165A
:1006B0008A1190250A128A115230F4000030F50098
:1006C0000A168A11A2250A128A110230F40000309B
:1006D000F5000A168A11A2250A128A110A168A1131
:1006E00099250A128A11823083120313EA00DD3041
:1006F000E900E90B792BEA0B792B0A168A11902570
:100700000A128A115330F4000030F5000A168A11DB
:10071000A2250A128A110030F000F1000A168A118F
:10072000B6260A128A11710883120313AB007008EF
:10073000AA000A168A1199250A128A1133308312E7
:100740000313EB00BB30EA00DF30E900E90BA62B16
:10075000EA0BA62BEB0BA62B83120313AF010A1691
:100760008A1190250A128A115030F4000030F500E9
:100770000A168A11A2250A128A110130F4000030EB
:10078000F5000A168A11A2250A128A110A168A1180
:1007900099250A128A11823083120313EA00DD3090
:1007A000E900E90BD12BEA0BD12B0A30831203139A
:1007B000A8000030A900A201A301692C0A168A1121
:1007C00090250A128A115130F4000030F5000A1603
:1007D0008A11A2250A128A110030F000F1000A16CF
:1007E0008A11B6260A128A11710883120313A9000E
:1007F0007008A8000A168A1199250A128A118230F7
:1008000083120313EA00DD30E900E90B052CEA0B43
:10081000052C831203132908803AFF0080307F02E1
:10082000031D142C0B302802031C172C182CDE2B54
:100830000A168A1190250A128A115230F4000030EB
:10084000F5000A168A11A2250A128A110130F40055
:100850000030F5000A168A11A2250A128A110A161A
:100860008A1199250A128A11823083120313EA0031
:10087000DD30E900E90B3A2CEA0B3A2C0A168A1112
:1008800090250A128A115330F4000030F5000A1640
:100890008A11A2250A128A110030F000F1000A160E
:1008A0008A11B6260A128A11710883120313A30053
:1008B0007008A2000A168A1199250A128A1182303C
:1008C00083120313EA00DD30E900E90B652CEA0B23
:1008D000652C83120313220823040319702C712C36
:1008E000092C0A128A15472D0A168A1190250A1218
:1008F0008A115030F4000030F5000A168A11A22542
:100900000A128A110130F4000030F5000A168A112B
:10091000A2250A128A110A168A1199250A128A1129
:10092000823083120313EA00DD30E900E90B962CD4
:10093000EA0B962C712C831203132908803AFF00CE
:1009400080307F02031DA62C0B302802031CA92C2B
:10095000AA2CE62C8312031322032304031DB12CBB
:10096000B22CE62C2E08031DB62CB72CE62C2D0835
:10097000031DBB2CBC2CE62C0A168A1190250A12EA
:100980008A115030F4000030F5000A168A11A225B1
:100990000A128A110030F400F5000A168A11A22505
:1009A0000A128A110A168A1199250A128A118230AE
:1009B00083120313EA00DD30E900E90BDD2CEA0BBA
:1009C000DD2C83120313AE01AE0A712C83120313C4
:1009D0002908803AFF0080307F02031DF12C0B3084
:1009E0002802031CF42CF52C242D8312031322035C
:1009F0002304031DFC2CFD2C242D02302E06031D88
:100A0000022D032D242D2D08031D072D082D242D27
:100A10000A168A1190250A128A115030F40000300B
:100A2000F5000A168A11A2250A128A110030F40074
:100A3000F5000A168A11A2250A128A110A168A11CD
:100A400099250A128A11902C831203132D03031D7A
:100A50002A2D2B2D712C2908803AFF0080307F022F
:100A6000031D342D0B302802031C372D382D712C1B
:100A70008312031322032304031D3F2D402D712CE9
:100A8000023083120313EB000430EA00B930E900AE
:100A9000E90B482DEA0B482DEB0B482D4F2D0A167C
:100AA0008A1190250A128A115030F4000030F500A6
:100AB0000A168A11A2250A128A110130F4000030A8
:100AC000F5000A168A11A2250A128A110A168A113D
:100AD00099250A128A11153083120313EB004B304B
:100AE000EA00BD30E900E90B732DEA0B732DEB0B27
:100AF000732D7A2D0230831203132E06031D812DD0
:100B0000822DCC2E072E0A168A1190250A128A11E0
:100B10005230F4000030F5000A168A11A2250A129C
:100B20008A110130F4000030F5000A168A11A2255E
:100B30000A128A110A168A1199250A128A1182301C
:100B400083120313EA00DD30E900E90BA52DEA0B5F
:100B5000A52D0A168A1190250A128A115330F40025
:100B60000030F5000A168A11A2250A128A110030F7
:100B7000F000F1000A168A11B6260A128A117108CD
:100B800083120313A3007008A2000A168A11992584
:100B90000A128A11823083120313EA00DD30E90061
:100BA000E90BD02DEA0BD02D83120313220323046B
:100BB0000319DB2DDC2D832D0A168A1190250A12CC
:100BC0008A115130F4000030F5000A168A11A2256E
:100BD0000A128A110030F000F1000A168A11B626B6
:100BE0000A128A11710883120313A9007008A80061
:100BF0000A168A1199250A128A1182308312031368
:100C0000EA00DD30E900E90B032EEA0B032E831224
:100C100003132908803AFF0080307F02031D122E43
:100C20000B3028020318152E162ED42D422E0A162C
:100C30008A1190250A128A115130F4000030F50013
:100C40000A168A11A2250A128A110030F000F1005A
:100C50000A168A11B6260A128A1171088312031322
:100C6000A9007008A8000A168A1199250A128A118B
:100C7000823083120313EA00DD30E900E90B3E2ED7
:100C8000EA0B3E2E831203132908803AFF008030BE
:100C90007F02031D4D2E0B302802031C502E512EB7
:100CA000172E0A168A1190250A128A115030F40064
:100CB0000030F5000A168A11A2250A128A110030A6
:100CC000F400F5000A168A11A2250A128A110A16E2
:100CD0008A1199250A128A11823083120313EA00BD
:100CE000DD30E900E90B722EEA0B722E0A168A112A
:100CF00090250A128A115230F4000030F5000A16CD
:100D00008A11A2250A128A110330F4000030F5007E
:100D10000A168A11A2250A128A110A168A11992521
:100D20000A128A11823083120313EA00DD30E900CF
:100D3000E90B982EEA0B982E0A168A1190250A12B2
:100D40008A115330F4000030F5000A168A11A225EA
:100D50000A128A110030F000F1000A168A11B62634
:100D60000A128A11710883120313AB007008AA00DB
:100D70000A168A1199250A128A11823083120313E6
:100D8000EA00DD30E900E90BC32EEA0BC32E831223
:100D90000313AE01AE0AC82F2E03031DD02ED12E91
:100DA000C82F562F0A168A1190250A128A1152301E
:100DB000F4000030F5000A168A11A2250A128A11E1
:100DC0000130F4000030F5000A168A11A2250A123B
:100DD0008A110A168A1199250A128A118230831201
:100DE0000313EA00DD30E900E90BF42EEA0BF42EE0
:100DF0000A168A1190250A128A115330F400003025
:100E0000F5000A168A11A2250A128A110030F00094
:100E1000F1000A168A11B6260A128A117108831285
:100E20000313A3007008A2000A168A1199250A125A
:100E30008A11823083120313EA00DD30E900E90BE6
:100E40001F2FEA0B1F2F83120313220323040319FE
:100E50002A2F2B2FD22E0A168A1190250A128A11B8
:100E60005130F4000030F5000A168A11A2250A124A
:100E70008A110030F000F1000A168A11B6260A1213
:100E80008A11710883120313A9007008A8000A16BA
:100E90008A1199250A128A11823083120313EA00FB
:100EA000DD30E900E90B522FEA0B522F83120313B6
:100EB0002908803AFF0080307F02031D612F0B302C
:100EC00028020318642F652F232F912F0A168A11E9
:100ED00090250A128A115130F4000030F5000A16EC
:100EE0008A11A2250A128A110030F000F1000A16B8
:100EF0008A11B6260A128A11710883120313A900F7
:100F00007008A8000A168A1199250A128A118230DF
:100F100083120313EA00DD30E900E90B8D2FEA0BA1
:100F20008D2F831203132908803AFF0080307F023F
:100F3000031D9C2F0B302802031C9F2FA02F662F10
:100F40000A168A1190250A128A115030F4000030D6
:100F5000F5000A168A11A2250A128A110030F4003F
:100F6000F5000A168A11A2250A128A110A168A1198
:100F700099250A128A11823083120313EA00DD30A8
:100F8000E900E90BC12FEA0BC12F83120313AE0155
:100F9000AF01AD01153083120313EB004B30EA00B3
:100FA000BD30E900E90BD22FEA0BD22FEB0BD22F89
:100FB000D92F712C0A128A1100288317DD30FD0009
:100FC0000A30FE000F30FF00903084000A168A11AC
:100FD000FB250A128A118313A0308400F0300A1610
:100FE0008A117F250A128A11203084004C300A169B
:100FF0008A117F250A128A1183010A128A15552C3B
:10100000FF1B0A2883137F1883170008840A03191B
:10101000FF0A080008308A000408840A82070034A6
:10102000013400340A34003464340034E8340334C6
:1010300010342734443469347334743461346E3476
:101040006334693461343A342034253430343234F2
:1010500075342034203420344C3475346D34693484
:101060006E346F34733469346434613464343A34C4
:101070002034253430343234753420342034203454
:1010800049346E34663472346134723472346F347D
:101090006A346F343A342034253430343234753481
:1010A00020342034203448346F34723461345F3457
:1010B000643465345F346434653474346534633463
:1010C000633469346F346E343A3420342534303428
:1010D000323475343A3425343034323475343A3459
:1010E00025343034323475340A34003444346934AD
:1010F0007334743461346E346334693461343A3433
:1011000020342534303432347534203420342034C3
:101110004C3475346D3469346E346F3473346934DF
:101120006434613464343A34203425343034323415
:10113000753420342034203449346E3466347234AB
:101140006134723472346F346A346F343A34203418
:1011500025343034323475340A3400342534303494
:10116000323475342F3425343034323475342F34DE
:10117000323430342534303432347534003425344C
:101180003034323475343A342534303432347534B2
:101190003A342534303432347534003450344134E8
:1011A00052345134553445344F3420344C344C345B
:1011B00045344E344F34003428346E3475346C3436
:1011C0006C342934003444344934533454340034B6
:1011D00049344E34463400344C3455345A34003497
:1011E00030342534643400342534733400346334AB
:0811F0006D340034203400349A
:1011FC00FD007C08840003300A168A114E270A125F
:10120C008A157F390A168A1138260A128A15831311
:10121C0080007D08840004300A168A114E270A12B9
:10122C008A153F390A168A1138260A128A15831331
:10123C0080007A08840005300A168A114E270A129B
:10124C008A151F390A168A1138260A128A15831331
:10125C0080007B08840006300A168A114E270A1279
:10126C008A150A168A1138260A128A1583138000E9
:10127C000800F701F801642977087207F500730874
:10128C00F4000318F40AF71F4C29F4037408F60051
:10129C00760883120313FF00750884000A128A155E
:1012AC0000200A128A150A168A11D3250A128A15E9
:1012BC000130F7070318F80A0030F80777087207AF
:1012CC00F5007308F4000318F40AF71F6E29F403F1
:1012DC007408F600760883120313FF007508840067
:1012EC000A128A1500200A128A15003A031D7F295A
:1012FC00802942290800F501F601700871040319D0
:10130C0088298929C029F701F70A97290130031088
:10131C00F00DF10DFF3E031D8D290130F400740812
:10132C00F707F11F9A299B298C2901300310F50D21
:10133C00F60DFF3E031D9C2971087302031DA8299D
:10134C0070087202031CAB29AC29B3297008F20295
:10135C007108031CF303F302751401300310F10C34
:10136C00F00CFF3E031DB4290130F702031DBF2909
:10137C00C0299B297608F1007508F00008000030A0
:10138C000A168A11C2270A128A153430F500F13078
:10139C00F400F40BCF29F50BCF29D42930300A16E1
:1013AC008A1150260A128A150D30F500FB30F40014
:1013BC00F40BDE29F50BDE29E32930300A168A11ED
:1013CC0050260A128A150230F6000430F500BA30A5
:1013DC00F400F40BEF29F50BEF29F60BEF290000C5
:1013EC0038300A168A1150260A128A150C300A1641
:1013FC008A1150260A128A1501300A168A115026B3
:10140C000A128A1506300A168A1150260A128A15F3
:10141C00080044346F346D3469346E3467346F347F
:10142C0000340034003400344C3475346E3465347C
:10143C0073340034003400340034003400344D3440
:10144C0061347234743465347334003400340034D1
:10145C00003400344D3469346534723463346F3481
:10146C006C3465347334003400344A347534653468
:10147C007634653473340034003400340034003472
:10148C0056346934653472346E34653473340034D4
:10149C0000340034003453346134623461346434C5
:1014AC006F340034003400340034003483120313DE
:1014BC005208F0005308F100F201F3010030F7007C
:1014CC007A30F6001230F5000030F4000A128A155A
:1014DC0018230A128A15730883120313D700720893
:1014EC00D6007108D5007008D4000030F30000302D
:1014FC00F2000030F1004030F0005708F7005608B9
:10150C00F6005508F5005408F4000A128A15182341
:10151C000A128A157008FF3E83120313D800710853
:10152C000318013EFF3ED900580883160313990097
:10153C00831203135908831603139A001811831688
:10154C0003178711831603131812831203139817AA
:10155C0083160313981608000030FC000030FB00C3
:10156C000030FA000030F900730872047104700442
:10157C000319C12AC22A0F2BFD01FD0AD22A013000
:10158C00F8000310F00DF10DF20DF30DF80BC72A56
:10159C000130F8007808FD07F31FD52AD62AC52A92
:1015AC000130F8000310F90DFA0DFB0DFC0DF80BD2
:1015BC00D82A73087702031DED2A72087602031DE0
:1015CC00ED2A71087502031DED2A70087402031CC4
:1015DC00F02AF12A002B7008F4027108031C710F19
:1015EC00F5027208031C720FF6027308031C730FCA
:1015FC00F702791401300310F30CF20CF10CF00C1F
:10160C00FF3E031D012B0130FD02031D0E2B0F2B82
:10161C00D62A7C08F3007B08F2007A08F1007908DE
:10162C00F000080083120313CD01F31F1E2B1F2B98
:10163C002C2BF009F109F209F309F00A0319F10A4C
:10164C000319F20A0319F30ACD01CD0AF71F2F2B48
:10165C00302B3F2BF409F509F609F709F40A0319A5
:10166C00F50A0319F60A0319F70A0130F80078088D
:10167C00CD060030D1000030D0000030CF0000305B
:10168C00CE00730872047104700403194E2B4F2B97
:10169C009C2BCC01CC0A5F2B0130F8000310F00D11
:1016AC00F10DF20DF30DF80B542B0130F800780806
:1016BC00CC07F31F622B632B522B0130F800031065
:1016CC00CE0DCF0DD00DD10DF80B652B7308770215
:1016DC00031D7A2B72087602031D7A2B7108750292
:1016EC00031D7A2B70087402031C7D2B7E2B8D2B13
:1016FC007008F4027108031C710FF5027208031CC8
:10170C00720FF6027308031C730FF7024E140130AC
:10171C000310F30CF20CF10CF00CFF3E031D8E2B9E
:10172C000130CC02031D9B2B9C2B632B4D08031902
:10173C00A02BA12BAC2BCE09CF09D009D109CE0AF5
:10174C000319CF0A0319D00A0319D10A5108F3005F
:10175C005008F2004F08F1004E08F0000800831208
:10176C000313CC007F30FC007C08FB053F30FC00F1
:10177C007C08F9050A168A1190250A128A15D030B0
:10178C00F4000030F5000A168A11A2250A128A15F7
:10179C000030F400F5000A168A11A2250A128A15E7
:1017AC007B080A168A110A260A128A15FC00FD010A
:1017BC007C08F4007D08F5000A168A11A2250A128D
:1017CC008A157A080A168A110A260A128A15FC004A
:1017DC00FD017C08F4007D08F5000A168A11A2258B
:1017EC000A128A1579080A168A110A260A128A150B
:1017FC00FC00FD017C08F4007D08F5000A168A1136
:10180C00A2250A128A1578080A168A110A260A12C3
:10181C008A15FC00FD017C08F4007D08F5000A1611
:10182C008A11A2250A128A15831203134C080A1670
:10183C008A110A260A128A15FC00FD017C08F400A4
:10184C007D08F5000A168A11A2250A128A15760857
:10185C000A168A110A260A128A15FC00FD017C0858
:10186C00F4007D08F5000A168A11A2250A128A15C1
:10187C0077080A168A110A260A128A15FC00FD013D
:10188C007C08F4007D08F5000A168A11A2250A12BC
:10189C008A150A168A1199250A128A1508000A1641
:1018AC008A118F260A128A150A128A15C5210A1264
:1018BC008A15803083120313D2002530D3000A120C
:1018CC008A155C220A128A150A168A1190250A12A8
:1018DC008A155130F4000030F5000A168A11A22541
:1018EC000A128A150030F000F1000A168A11B62689
:1018FC000A128A15710883120313A7007008A60038
:10190C000A168A1199250A128A158230831203133A
:10191C00EA00DD30E900E90B912CEA0B912C0A1658
:10192C008A1190250A128A155230F4000030F50005
:10193C000A168A11A2250A128A150030F400F50045
:10194C000A168A11A2250A128A150A168A119925D5
:10195C000A128A15823083120313EA00DD30E90083
:10196C00E90BB62CEA0BB62C0A168A1190250A1232
:10197C008A155330F4000030F5000A168A11A2259E
:10198C000A128A150030F000F1000A168A11B626E8
:10199C000A128A15710883120313A1007008A000A3
:1019AC000A168A1199250A128A158230831203139A
:1019BC00EA00DD30E900E90BE12CEA0BE12C0A1618
:1019CC008A1190250A128A155230F4000030F50065
:1019DC000A168A11A2250A128A150130F400003069
:1019EC00F5000A168A11A2250A128A150A168A11FE
:1019FC0099250A128A15823083120313EA00DD300E
:101A0C00E900E90B072DEA0B072D0A168A11902520
:101A1C000A128A155330F4000030F5000A168A11A8
:101A2C00A2250A128A150030F000F1000A168A115C
:101A3C00B6260A128A15710883120313A3007008C4
:101A4C00A2000A168A1199250A128A15823083126D
:101A5C000313EA00DD30E900E90B322DEA0B322DDD
:101A6C000830F6001730F7000230F8000230F900A9
:101A7C000A30FA00FB011B300A128A15B5230A1230
:101A8C008A1500308312031305180130AD000A16B5
:101A9C008A11C3250A128A15F401F40A01300A12BC
:101AAC008A1103200A128A15D430F2008030F30018
:101ABC000A128A153F210A128A150330F4000230EB
:101ACC000A128A1103200A128A15E830F2008030BB
:101ADC00F3000A128A153F210A128A150730F40006
:101AEC0001300A128A1103200A128A15DD30F20025
:101AFC008030F3000A128A153F210A128A150C3025
:101B0C00F40001300A128A1103200A128A15D93006
:101B1C00F2008030F3000A128A153F210A128A154E
:101B2C000A168A1190250A128A155130F4000030D9
:101B3C00F5000A168A11A2250A128A150030F00047
:101B4C00F1000A168A11B6260A128A157108831238
:101B5C000313A7007008A6000A168A1199250A1209
:101B6C008A15823083120313EA00DD30E900E90B99
:101B7C00BD2DEA0BBD2D0B3083120313A8000030D2
:101B8C00A9002708803AFF0080307F02031DD02D6A
:101B9C000B3026020318D32DD42D142E0A168A11BD
:101BAC0090250A128A155130F4000030F5000A16FF
:101BBC008A11A2250A128A150030F000F1000A16CB
:101BCC008A11B6260A128A15710883120313A7000C
:101BDC007008A6000A168A1199250A128A158230F5
:101BEC0083120313EA00DD30E900E90BFB2DEA0B4D
:101BFC00FB2D831203132708803AFF0080307F02ED
:101C0C00031D0A2E0B30260203180D2E0E2E142E39
:101C1C00831203132708A9002608A80083120313B4
:101C2C00A71B192E1A2E382E2708803AFF00803059
:101C3C007F02031D232E0A3026020318262E272E80
:101C4C00382E0230F40002300A128A1103200A12D4
:101C5C008A15EB30F2008030F3000A128A153F210E
:101C6C000A128A15831203132708803AFF0080306A
:101C7C007F02031D432E63302602031C462E472E83
:101C8C004D2E633083120313A6000030A700F4011D
:101C9C00F40A02300A128A1103200A128A15E23061
:101CAC0083120313CC002708CE002608CD003B304E
:101CBC000A128A111D200A128A153B30F2000030DC
:101CCC00F3000A128A153F210A128A150A168A1184
:101CDC0090250A128A155230F4000030F5000A16CD
:101CEC008A11A2250A128A150030F400F5000A1692
:101CFC008A11A2250A128A150A168A1199250A1226
:101D0C008A15823083120313EA00DD30E900E90BF7
:101D1C008D2EEA0B8D2E0A168A1190250A128A1521
:101D2C005330F4000030F5000A168A11A2250A126D
:101D3C008A150030F000F1000A168A11B6260A1234
:101D4C008A15710883120313A1007008A0000A16EB
:101D5C008A1199250A128A15823083120313EA001C
:101D6C00DD30E900E90BB82EEA0BB82E8312031311
:101D7C002108803AFF0080307F02031DC72E64309B
:101D8C0020020318CA2ECB2EEB2E0730F4000230A3
:101D9C000A128A1103200A128A15E13083120313E6
:101DAC00CC002108CE002008CD0031300A128A1157
:101DBC001D200A128A153130F2000030F3000A128D
:101DCC008A153F210A128A15022F0730F4000230BF
:101DDC000A128A1103200A128A15E23083120313A5
:101DEC00CC002108CE002008CD0031300A128A1117
:101DFC001D200A128A15E12E0A168A1190250A1244
:101E0C008A155230F4000030F5000A168A11A2250A
:101E1C000A128A150130F4000030F5000A168A11F6
:101E2C00A2250A128A150A168A1199250A128A15F0
:101E3C00823083120313EA00DD30E900E90B242F12
:101E4C00EA0B242F0A168A1190250A128A15533090
:101E5C00F4000030F5000A168A11A2250A128A1520
:101E6C000030F000F1000A168A11B6260A128A1503
:101E7C00710883120313A3007008A2000A168A11BA
:101E8C0099250A128A15823083120313EA00DD3079
:101E9C00E900E90B4F2FEA0B4F2F0C30F400023006
:101EAC000A128A1103200A128A15E23083120313D4
:101EBC00CC002308CE002208CD00E6300A128A118D
:101ECC001D200A128A15E630F2000030F3000A12C7
:101EDC008A153F210A128A15831203132203230445
:101EEC00031D792F7A2FF62F2F08031D7E2F7F2F9E
:101EFC00F62F0A168A11C3250A128A154A30FA00DF
:101F0C004930FB004830FC004B300A128A15FE2089
:101F1C000A128A154630FA004530FB0047300A1683
:101F2C008A11E4260A128A159F3083120313CC00FF
:101F3C004B08CD00CE01CD1BCE034A08CF00D001FB
:101F4C00CF1BD0034908D100D201D11BD203D23010
:101F5C000A128A111D200A128A15F401F40A0130A2
:101F6C000A128A1103200A128A15D230F2000030AC
:101F7C00F3000A128A153F210A128A15B030831217
:101F8C000313CC004708CD00CE01CD1BCE03460871
:101F9C00CF00D001CF1BD0034508D100D201D11BFB
:101FAC00D203D2300A128A111D200A128A15F401AA
:101FBC00F40A02300A128A1103200A128A15D2304E
:101FCC00F2000030F3000A128A153F210A128A151A
:101FDC00013083120313A4000030A500AF01AF0A37
:101FEC0024032504031DFD2F0A128A117A2A0A12D2
:041FFC008A11D12A4B
:102AFE0064008001840A0406031900340406802D44
:102B0E000A168A11B6250A168A1183160313911412
:102B1E0008000A168A11B6250A168A11831603139F
:102B2E00111408000A168A11B6250A168A11831680
:102B3E000313111508000A168A11B6250A168A11F2
:102B4E0074088312031393000800F000831203131A
:102B5E000C1EB22DB32DAD2D7008990008008316F2
:102B6E0003131419BB2DBC2DB62D11081F39031DCF
:102B7E00C12DC22DB62D080001300A168A1150261D
:102B8E000A168A110630F5003030F400F40BCD2D04
:102B9E00F50BCD2D00000800F1008312031309146C
:102BAE0071080A168A11C2270A168A118312031394
:102BBE000915E12D8312031309110800F100F0012C
:102BCE003A3071020318EC2DED2DF52D30307102D7
:102BDE00031CF22DF32DF52DF001F00A700C0800F8
:102BEE007E088A007F0882000A168A11F7250A16C7
:102BFE008A118000840A04087D0603190034FF0A36
:102C0E000319FE0AFB2DF1007108F300F2010A30E0
:102C1E007302031C132E142E1B2E0A30F3021030D7
:102C2E00F0007008F2070E2E7308F0007008F2071D
:102C3E0072080800F2002F2E7208840000080A168F
:102C4E008A11AC250A168A110130F1007108F207BB
:102C5E007208840083130008031D362E372E232E90
:102C6E000800F2007208F3000310F30C7830F00045
:102C7E007008F3057308F00002300310F00CFF3EED
:102C8E00031D442E72080F397007F1007308710787
:102C9E000800F30083120313091073080A168A1131
:102CAE00C2270A168A118312031309150B30F2007C
:102CBE006230F100F10B612EF20B612E00008312D7
:102CCE00031309110800F401F501701C6F2E702E0C
:102CDE00762E7208F4070318F50A7308F50701300B
:102CEE000310F20DF30DFF3E031D772E013003107E
:102CFE00F10CF00CFF3E031D7E2E70087104031DB7
:102D0E00892E8A2E6C2E7508F1007408F0000800CA
:102D1E00831603178801890101308316031385007A
:102D2E0086018801890183120313850186018701BB
:102D3E00880189010030CF000130CE008630CD00F1
:102D4E00A030CC000A168A1116270A168A118B1784
:102D5E000B177030831603138F040F1408000A1616
:102D6E008A11B6250A168A118316031391150A16AF
:102D7E008A11B6250A168A11831203131308F2005C
:102D8E00F3017208F4007308F5000A168A11B625CD
:102D9E000A168A1170037104031DD62ED72EDB2E50
:102DAE00831603139112DE2E83160313911611163A
:102DBE007508F1007408F0000800FC007B08840020
:102DCE0000300A168A114E270A168A117F390A1602
:102DDE008A1138260A168A11831380007A08840015
:102DEE0001300A168A114E270A168A117F390A16E1
:102DFE008A1138260A168A11831380007C088400F3
:102E0E0002300A168A114E270A168A113F390A16FF
:102E1E008A1138260A168A1183138000080028307A
:102E2E008312031394008316031391018312031369
:102E3E004C08D0004D08D1004E08D2004F08D300E8
:102E4E0002300310D00DD10DD20DD30DFF3E031D58
:102E5E00282F5308F3005208F2005108F1005008D1
:102E6E00F0000030F7007A30F6001230F500003036
:102E7E00F4000A128A15B2220A168A117008FF3E51
:102E8E008316031393009401871507160800F800A4
:102E9E000A168A1190250A168A11D030F4000030D5
:102EAE00F5000A168A11A2250A168A117808F6006C
:102EBE00F7017608F4007708F5000A168A11A225A4
:102ECE000A168A110A168A1187250A168A11D13016
:102EDE00F4000030F5000A168A11A2250A168A118E
:102EEE000030F000F1000A168A11B6260A168A1171
:102EFE007008F9000A168A1199250A168A1179089E
:102F0E0008007808790403198D2F8E2FBD2FFD012F
:102F1E00FD0A9C2F01300310F80DF90DFF3E031D25
:102F2E00922F0130FC007C08FD07F91F9F2FA02F68
:102F3E00912F79087B02031DA62F78087A02031CB5
:102F4E00A92FAA2FB02F7808FA027908031CFB03C9
:102F5E00FB0201300310F90CF80CFF3E031DB12FDC
:102F6E000130FD02031DBC2FBD2FA02F7B08F900E1
:102F7E007A08F8000800F000701CC62FC72FCB2F60
:102F8E00831203130814CE2F831203130810F01CA0
:102F9E00D12FD22FD42F8814D52F8810701DD82F53
:102FAE00D92FDB2F0815DC2F0811F01DDF2FE02F96
:102FBE00E22F8815E32F8811701EE62FE72FE92FD9
:102FCE000816EA2F0812F01EED2FEE2FF02F88169E
:102FDE00F12F8812701FF42FF52FF72F0817F82FE7
:102FEE000813F01FFB2FFC2FFE2F8817FF2F8813BF
:022FFE000800C9
:08400000FF3FFF3FFF3FFF3FC0
:04400E00D420FF3F7C
:00000001FF
