:100000000A128A11DD2F44346F346D3469346E3432
:1000100067346F3400340034003400344C347534A9
:100020006E346534733400340034003400340034EA
:1000300000344D34613472347434653473340034B4
:1000400000340034003400344D3469346534723483
:1000500063346F346C3465347334003400344A34A0
:1000600075346534763465347334003400340034C8
:100070000034003456346934653472346E34653477
:100080007334003400340034003453346134623447
:10009000613464346F34003400340034003400348C
:1000A00083120313D4007F30FC007C08FB053F3033
:1000B000FC007C08F9050A168A1187260A128A11A3
:1000C000D030F4000030F5000A168A1199260A1281
:1000D0008A110030F400F5000A168A1199260A12D6
:1000E0008A117B080A168A1101270A128A11FC005C
:1000F000FD017C08F4007D08F5000A168A11992696
:100100000A128A117A080A168A1101270A128A111C
:10011000FC00FD017C08F4007D08F5000A168A1138
:1001200099260A128A1179080A168A1101270A12D9
:100130008A11FC00FD017C08F4007D08F5000A1618
:100140008A1199260A128A1178080A168A1101273B
:100150000A128A11FC00FD017C08F4007D08F500FC
:100160000A168A1199260A128A1183120313540857
:100170000A168A1101270A128A11FC00FD017C0867
:10018000F4007D08F5000A168A1199260A128A11D0
:1001900076080A168A1101270A128A11FC00FD014D
:1001A0007C08F4007D08F5000A168A1199260A12C7
:1001B0008A1177080A168A1101270A128A11FC008F
:1001C000FD017C08F4007D08F5000A168A119926C5
:1001D0000A128A110A168A1190260A128A11080038
:1001E00083120313EA005530E100382B25306706EF
:1001F0000319FB28FC2806296A0884006708831372
:1002000080000130DB005B08EA07382BE801E901D8
:10021000E6010F2966150130DB005B08D40754089E
:1002200084000A128A150A200A128A11DB00DC01F6
:100230005C08003A03191D2922295B08303A03198A
:100240000A292229540884000A128A150A200A124F
:100250008A110A168A11DC260A128A11031C312916
:100260003229FA2983120313E801E9010A30F00068
:100270000030F100831203136908F3006808F200EC
:100280000A168A117B270A128A1171088312031336
:10029000E9007008E800540884000A128A150A2050
:1002A0000A128A11D03EDB00FF3003180030DC0058
:1002B0005B08E8070318E90A5C08E9070130DB007E
:1002C0005B08D407540884000A128A150A200A120F
:1002D0008A110A168A11DC260A128A11031871295A
:1002E00072293629FA296108840083130008DF0087
:1002F000840A00088403E0000230DB005B08E107A9
:100300005F086004031D852986298A295A30DF0089
:100310008030E000E201E30193290130E207031895
:10032000E30A0030E30762085F07840060080318EF
:10033000600AFF000A128A1500200A128A11003A88
:10034000031DA329A4298D2969086302031DAA2975
:10035000680862020318AD29AE29B5296208E802CF
:100360006308031CE903E902C129E801E901C12985
:100370006A0884002030831380000130DB005B08B2
:10038000EA07FF30E8070318E90AFF30E907680ABF
:10039000031DCE29690A031DCE29CF29B829E929D1
:1003A0006008FF005F0884000A128A1500200A1204
:1003B0008A11DB006A0884005B0883138000013027
:1003C000DF070318E00A0030E0070130DB005B08BC
:1003D000EA070130E2020030031CE303E302620A91
:1003E000031DF629630A031DF629F729D029382BA6
:1003F00066171F2A013083120313D407FF305407F6
:1004000084000A128A150A200A128A11E700DB000A
:10041000DC015C08003A03190E2A382B5B08003A0D
:100420000319482B643A03191F2A0D3A03191F2A8E
:100430001A3A03197329063A0319F829382B661B4F
:10044000222A232A3D2A6108840083130008E4003D
:10045000840A0008E5000230DB005B08E107E51FC5
:10046000322A332A492A0330DB005B08E604E40918
:10047000E509E40A0319E50A492A6108840083139F
:100480000008E400840A0008E5000230DB005B0895
:10049000E107E701E70A6708DB005B07013E84002C
:1004A0000A128A150A200A128A11DC000A128A1519
:1004B0000A200A128A11DD005D086502031D622A06
:1004C0005C0864020318652A662A672A712A0130CB
:1004D000DB005B08E70705306706031D702A712AF9
:1004E0004B2A680869040319762A772A832A660842
:1004F000033903197C2A7D2A832AFF30E807031871
:10050000E90AFF30E9076908803A803C031D8A2A1E
:100510006808670203188D2A8E2A9A2A8312031309
:100520006708DB00DC015B08E8025C08031CE903E8
:10053000E9029E2A83120313E801E901661DA12A3C
:10054000A22ACD2A660803390319A72AA82AB12AA4
:100550006A0884002D30831380000130DB005B08C3
:10056000EA07680869040319B62AB72AF72A6A084D
:1005700084003030831380000130DB005B08EA0721
:10058000FF30E8070318E90AFF30E9076808690443
:10059000031DCB2ACC2AB72AF72A68086904031955
:1005A000D22AD32AE82A6A088400203083138000E4
:1005B0000130DB005B08EA07FF30E8070318E90AAF
:1005C000FF30E90768086904031DE72AE82AD32AEF
:1005D000660803390319ED2AEE2AF72A6A0884000F
:1005E0002D30831380000130DB005B08EA076708C9
:1005F000DE002F2B0A30F8000030F9005E08DB0027
:100600005B07013E84000A128A150A200A128A1129
:10061000F0000A128A150A200A128A11F1006508F0
:10062000F3006408F2000A128A1521220A128A11C4
:100630007108FB007008FA000A128A1526210A12B6
:100640008A117808303E83120313E7006A08840099
:100650006708831380000130DB005B08EA07FF3086
:10066000DB005B08DE075E0A031D372B382BFA2AF6
:100670000130D407FF30540784000A128A150A207B
:100680000A128A11E7006708031D472B482BF6283A
:100690006A088400831380010800831203132B0867
:1006A000031D532B542B3C2D02302C06031D592BBC
:1006B0005A2B9D2B0A168A1187260A128A1150304E
:1006C000F4000030F5000A168A1199260A128A11E0
:1006D0000030F400F5000A168A1199260A128A11D0
:1006E0000A168A1190260A128A1182308312031385
:1006F000EC00DD30EB00EB0B7B2BEC0B7B2B0A16BD
:100700008A11BA260A128A114C30F2008030F300A6
:100710000A128A15DF210A128A111F30831203136D
:10072000ED007130EC001D30EB00EB0B952BEC0B6A
:10073000952BED0B952B9C2B122D2C03031DA12B20
:10074000A22B152D0230AC000A168A1187260A1238
:100750008A115230F4000030F5000A168A119926E9
:100760000A128A110230F4000030F5000A168A11CC
:1007700099260A128A110A168A1190260A128A11DB
:10078000823083120313EC00DD30EB00EB0BC62B41
:10079000EC0BC62B0A168A1187260A128A115330CF
:1007A000F4000030F5000A168A1199260A128A11FF
:1007B0000030F000F1000A168A11A0270A128A11EF
:1007C000710883120313A9007008A8000A168A1181
:1007D00090260A128A11823083120313EC00DD3056
:1007E000EB00EB0BF12BEC0BF12B472C0A168A11CB
:1007F00087260A128A115230F4000030F5000A16DA
:100800008A1199260A128A110130F4000030F5008D
:100810000A168A1199260A128A110A168A11902636
:100820000A128A11823083120313EC00DD30EB00D0
:10083000EB0B182CEC0B182C0A168A1187260A12BF
:100840008A115330F4000030F5000A168A119926F7
:100850000A128A110030F000F1000A168A11A0274E
:100860000A128A11710883120313A3007008A200F0
:100870000A168A1190260A128A11823083120313F3
:10088000EC00DD30EB00EB0B432CEC0B432C831224
:1008900003132203230403194E2C4F2CF62BAD0116
:1008A0000A168A1187260A128A115030F400003085
:1008B000F5000A168A1199260A128A110130F400ED
:1008C0000030F5000A168A1199260A128A110A16B2
:1008D0008A1190260A128A11823083120313EC00C7
:1008E000DD30EB00EB0B722CEC0B722C0A30831218
:1008F0000313A6000030A700A201A3010A2D0A16C7
:100900008A1187260A128A115130F4000030F5004E
:100910000A168A1199260A128A110030F000F10095
:100920000A168A11A0270A128A117108831203136A
:10093000A7007008A6000A168A1190260A128A11CA
:10094000823083120313EC00DD30EB00EB0BA62C9E
:10095000EC0BA62C831203132708803AFF0080308B
:100960007F02031DB52C0B302602031CB82CB92CBA
:100970007F2C0A168A1187260A128A115230F40037
:100980000030F5000A168A1199260A128A110130E0
:10099000F4000030F5000A168A1199260A128A110D
:1009A0000A168A1190260A128A11823083120313C2
:1009B000EC00DD30EB00EB0BDB2CEC0BDB2C0A1638
:1009C0008A1187260A128A115330F4000030F5008C
:1009D0000A168A1199260A128A110030F000F100D5
:1009E0000A168A11A0270A128A11710883120313AA
:1009F000A3007008A2000A168A1190260A128A1112
:100A0000823083120313EC00DD30EB00EB0B062D7C
:100A1000EC0B062D83120313220823040319112D56
:100A2000122DAA2C0A128A15FA2C0A168A11872668
:100A30000A128A115030F4000030F5000A168A11AB
:100A400099260A128A110130F4000030F5000A16C6
:100A50008A1199260A128A110A168A1190260A12F8
:100A60008A11823083120313EC00DD30EB00EB0BB4
:100A7000372DEC0B372D122D831203132708803AE4
:100A8000FF0080307F02031D472D0B302602031C20
:100A90004A2D4B2D872D8312031322032304031D9C
:100AA000522D532D872D2C08031D572D582D872D82
:100AB0002B08031D5C2D5D2D872D0A168A118726B4
:100AC0000A128A115030F4000030F5000A168A111B
:100AD00099260A128A110030F400F5000A168A11CC
:100AE00099260A128A110A168A1190260A128A1168
:100AF000823083120313EC00DD30EB00EB0B7E2D14
:100B0000EC0B7E2D83120313AC01AC0A122D831261
:100B100003132708803AFF0080307F02031D922DC7
:100B20000B302602031C952D962DC52D8312031321
:100B300022032304031D9D2D9E2DC52D02302C065E
:100B4000031DA32DA42DC52D2B08031DA82DA92DF4
:100B5000C52D0A168A1187260A128A115030F40010
:100B60000030F5000A168A1199260A128A110030FF
:100B7000F400F5000A168A1199260A128A110A163B
:100B80008A1190260A128A11312D831203132B0326
:100B9000031DCB2DCC2D122D2708803AFF0080306D
:100BA0007F02031DD52D0B302602031CD82DD92D15
:100BB000122D8312031322032304031DE02DE12DC4
:100BC000122D023083120313ED000430EC00B93013
:100BD000EB00EB0BE92DEC0BE92DED0BE92DF02DE6
:100BE0000A168A1187260A128A115030F400003042
:100BF000F5000A168A1199260A128A110130F400AA
:100C00000030F5000A168A1199260A128A110A166E
:100C10008A1190260A128A11153083120313ED00EF
:100C20004B30EC00BD30EB00EB0B142EEC0B142E14
:100C3000ED0B142E1B2E0230831203132C06031D02
:100C4000222E232E072FA82E0A168A1187260A1273
:100C50008A115230F4000030F5000A168A119926E4
:100C60000A128A110130F4000030F5000A168A11C8
:100C700099260A128A110A168A1190260A128A11D6
:100C8000823083120313EC00DD30EB00EB0B462EB9
:100C9000EC0B462E0A168A1187260A128A11533047
:100CA000F4000030F5000A168A1199260A128A11FA
:100CB0000030F000F1000A168A11A0270A128A11EA
:100CC000710883120313A3007008A2000A168A1188
:100CD00090260A128A11823083120313EC00DD3051
:100CE000EB00EB0B712EEC0B712E8312031322031E
:100CF000230403197C2E7D2E242E0A168A118726A2
:100D00000A128A115130F4000030F5000A168A11D7
:100D100099260A128A110030F000F1000A168A1191
:100D2000A0270A128A11710883120313A700700802
:100D3000A6000A168A1190260A128A11823083129E
:100D40000313EC00DD30EB00EB0BA42EEC0BA42E18
:100D5000831203132708803AFF0080307F02031DAF
:100D6000B32E0B3026020318B62EB72E752E0A1698
:100D70008A1187260A128A115030F4000030F500DB
:100D80000A168A1199260A128A110030F400F50019
:100D90000A168A1199260A128A110A168A119026B1
:100DA0000A128A11823083120313EC00DD30EB004B
:100DB000EB0BD82EEC0BD82E0A168A1187260A12B6
:100DC0008A115230F4000030F5000A168A11992673
:100DD0000A128A110330F4000030F5000A168A1155
:100DE00099260A128A110A168A1190260A128A1165
:100DF000823083120313EC00DD30EB00EB0BFE2E90
:100E0000EC0BFE2E83120313AC01AC0AC82F2C038B
:100E1000031D0B2F0C2FC82F912F0A168A1187261E
:100E20000A128A115230F4000030F5000A168A11B5
:100E300099260A128A110130F4000030F5000A16D2
:100E40008A1199260A128A110A168A1190260A1204
:100E50008A11823083120313EC00DD30EB00EB0BC0
:100E60002F2FEC0B2F2F0A168A1187260A128A11B0
:100E70005330F4000030F5000A168A1199260A1240
:100E80008A110030F000F1000A168A11A0270A1218
:100E90008A11710883120313A3007008A2000A16B6
:100EA0008A1190260A128A11823083120313EC00F1
:100EB000DD30EB00EB0B5A2FEC0B5A2F8312031390
:100EC000220323040319652F662F0D2F0A168A119A
:100ED00087260A128A115130F4000030F5000A16F4
:100EE0008A1199260A128A110030F000F1000A16C0
:100EF0008A11A0270A128A11710883120313A7000E
:100F00007008A6000A168A1190260A128A118230E9
:100F100083120313EC00DD30EB00EB0B8D2FEC0B99
:100F20008D2F831203132708803AFF0080307F0241
:100F3000031D9C2F0B30260203189F2FA02F5E2F1E
:100F40000A168A1187260A128A115030F4000030DE
:100F5000F5000A168A1199260A128A110030F40047
:100F6000F5000A168A1199260A128A110A168A11A0
:100F700090260A128A11823083120313EC00DD30AE
:100F8000EB00EB0BC12FEC0BC12F83120313AC0151
:100F9000AD01AB01153083120313ED004B30EC00B3
:100FA000BD30EB00EB0BD22FEC0BD22FED0BD22F81
:100FB000D92F122D0A128A1100288317DD30FD0067
:100FC0000030FE000330FF00903084000A168A11C2
:100FD000F2260A128A118313A0308400C8300A1640
:100FE0008A1176260A128A112030840054300A169B
:100FF0008A1176260A128A1183010A128A15082C90
:10100000FF1B0A2883137F1883170008840A03191B
:10101000FF0A080008308A000408840A82070034A6
:10102000013400340A34003464340034E8340334C6
:10103000103427342B3425343034323475343A3478
:1010400025343034323475343A3425343034323443
:1010500075340D34003425343034323475342F3443
:1010600025343034323475342F343234303425342E
:1010700030343234753400342534303432347534FD
:101080002F3425343034323475342F342534303411
:10109000323475340A340034253430343234753403
:1010A0003A3425343034323475343A3425343034DB
:1010B0003234753400345034413452345134553460
:1010C00045344F3420344C344C3445344E344F3452
:1010D000003428346E3475346C346C342934003464
:1010E0004434493453345434003449344E3446344F
:1010F00000344C3455345A3400343034253464349C
:10110000003425347334003463346D3400342034B7
:021110000034A9
:10111A00831603178801890101308316031385009A
:10112A0086018801890183120313850186018701DB
:10113A00880189010030D7000130D6008630D500F9
:10114A00A030D4000A128A15B4200A128A158B1705
:10115A000B177030831603138F040F1408002830FE
:10116A00831203139400831603139101831203134A
:10117A005408D8005508D9005608DA005708DB0089
:10118A0002300310D80DD90DDA0DDB0DFF3E031D19
:10119A00C6285B08F3005A08F2005908F1005808FB
:1011AA00F0000030F7007A30F6001230F500003017
:1011BA00F4000A128A1505230A128A157008FF3EDE
:1011CA008316031393009401871507160800F80085
:1011DA000A168A1187260A128A15D030F4000030BE
:1011EA00F5000A168A1199260A128A157808F60055
:1011FA00F7017608F4007708F5000A168A1199268D
:10120A000A128A150A168A117E260A128A15D130FE
:10121A00F4000030F5000A168A1199260A128A1576
:10122A000030F000F1000A168A11A0270A128A1566
:10123A007008F9000A168A1190260A128A15790886
:10124A0008007808790403192B292C295B29FD0148
:10125A00FD0A3A2901300310F80DF90DFF3E031D6E
:10126A0030290130FC007C08FD07F91F3D293E2981
:10127A002F2979087B02031D442978087A02031C66
:10128A00472948294E297808FA027908031CFB03E2
:10129A00FB0201300310F90CF80CFF3E031D4F2925
:1012AA000130FD02031D5A295B293E297B08F900FA
:1012BA007A08F8000800F000701C64296529692979
:1012CA008312031308146C29831203130810F01CE9
:1012DA006F2970297229881473298810701D76293C
:1012EA007729792908157A290811F01D7D297E297F
:1012FA008029881581298811701E842985298729C2
:10130A00081688290812F01E8B298C298E2988161E
:10131A008F298812701F92299329952908179629CF
:10132A000813F01F99299A299C2988179D2988133F
:10133A000800FD007C08840003300A128A15EC209C
:10134A000A128A157F390A168A112F270A128A1554
:10135A00831380007D08840004300A128A15EC2069
:10136A000A128A153F390A168A112F270A128A1574
:10137A00831380007A08840005300A128A15EC204B
:10138A000A128A151F390A168A112F270A128A1574
:10139A00831380007B08840006300A128A15EC2029
:1013AA000A128A150A168A112F270A128A15831316
:1013BA0080000800F701F801042A77087207F5008F
:1013CA007308F4000318F40AF71FEC29F4037408ED
:1013DA00F600760883120313FF00750884000A12C8
:1013EA008A1500200A128A150A168A11CA260A12B2
:1013FA008A150130F7070318F80A0030F80777084A
:10140A007207F5007308F4000318F40AF71F0E2A8E
:10141A00F4037408F600760883120313FF007508B4
:10142A0084000A128A1500200A128A15003A031D3E
:10143A001F2A202AE2290800F501F6017008710422
:10144A000319282A292A602AF701F70A372A0130BC
:10145A000310F00DF10DFF3E031D2D2A0130F4009B
:10146A007408F707F11F3A2A3B2A2C2A0130031085
:10147A00F50DF60DFF3E031D3C2A71087302031D8C
:10148A00482A70087202031C4B2A4C2A532A7008F5
:10149A00F2027108031CF303F302751401300310FE
:1014AA00F10CF00CFF3E031D542A0130F702031D14
:1014BA005F2A602A3B2A7608F1007508F0000800C6
:1014CA0000300A128A1560210A128A153430F50092
:1014DA00F130F400F40B6F2AF50B6F2A742A3030BE
:1014EA000A168A1147270A128A150D30F500FB30B1
:1014FA00F400F40B7E2AF50B7E2A832A30300A1672
:10150A008A1147270A128A150230F6000430F500BC
:10151A00BA30F400F40B8F2AF50B8F2AF60B8F2AB8
:10152A00000038300A168A1147270A128A150C3029
:10153A000A168A1147270A128A1501300A168A11D1
:10154A0047270A128A1506300A168A1147270A12ED
:10155A008A150800831203135A08F0005B08F10089
:10156A00F201F3010030F7007A30F6001230F5008C
:10157A000030F4000A128A156B230A128A157308BE
:10158A0083120313DF007208DE007108DD007008A1
:10159A00DC000030F3000030F2000030F10040308F
:1015AA00F0005F08F7005E08F6005D08F5005C08C9
:1015BA00F4000A128A156B230A128A157008FF3E74
:1015CA0083120313E00071080318013EFF3EE10095
:1015DA0060088316031399008312031361088316A4
:1015EA0003139A001811831603178711831603131E
:1015FA0018128312031398178316031398160800F8
:10160A000030FC000030FB000030FA000030F90026
:10161A0073087204710470040319142B152B622BBE
:10162A00FD01FD0A252B0130F8000310F00DF10D24
:10163A00F20DF30DF80B1A2B0130F8007808FD07AC
:10164A00F31F282B292B182B0130F8000310F90D52
:10165A00FA0DFB0DFC0DF80B2B2B73087702031DFB
:10166A00402B72087602031D402B71087502031D78
:10167A00402B70087402031C432B442B532B700815
:10168A00F4027108031C710FF5027208031C720F31
:10169A00F6027308031C730FF70279140130031062
:1016AA00F30CF20CF10CF00CFF3E031D542B01302D
:1016BA00FD02031D612B622B292B7C08F3007B089A
:1016CA00F2007A08F1007908F00008008312031387
:1016DA00D501F31F712B722B7F2BF009F109F20947
:1016EA00F309F00A0319F10A0319F20A0319F30AB2
:1016FA00D501D50AF71F822B832B922BF409F50902
:10170A00F609F709F40A0319F50A0319F60A03197F
:10171A00F70A0130F8007808D5060030D900003001
:10172A00D8000030D7000030D60073087204710464
:10173A0070040319A12BA22BEF2BD401D40AB22BCC
:10174A000130F8000310F00DF10DF20DF30DF80B56
:10175A00A72B0130F8007808D407F31FB52BB62B56
:10176A00A52B0130F8000310D60DD70DD80DD90DD1
:10177A00F80BB82B73087702031DCD2B720876027B
:10178A00031DCD2B71087502031DCD2B7008740241
:10179A00031CD02BD12BE02B7008F4027108031C18
:1017AA00710FF5027208031C720FF6027308031C0C
:1017BA00730FF702561401300310F30CF20CF10CFC
:1017CA00F00CFF3E031DE12B0130D402031DEE2B6A
:1017DA00EF2BB62B55080319F32BF42BFF2BD60945
:1017EA00D709D809D909D60A0319D70A0319D80A71
:1017FA000319D90A5908F3005808F2005708F100EA
:10180A005608F00008000A128A158D200A128A1555
:10181A000A128A1565220A128A1580308312031366
:10182A00DA002530DB000A128A15AF220A128A155D
:10183A000A168A1187260A128A155130F4000030D6
:10184A00F5000A168A1199260A128A150030F00044
:10185A00F1000A168A11A0270A128A157108831242
:10186A000313A5007008A4000A168A1190260A120A
:10187A008A15823083120313EC00DD30EB00EB0B88
:10188A00442CEC0B442C0A168A1187260A128A1554
:10189A005230F4000030F5000A168A1199260A120D
:1018AA008A150030F400F5000A168A1199260A12E0
:1018BA008A150A168A1190260A128A15823083120C
:1018CA000313EC00DD30EB00EB0B692CEC0B692CFD
:1018DA000A168A1187260A128A155330F400003034
:1018EA00F5000A168A1199260A128A150030F000A4
:1018FA00F1000A168A11A0270A128A1571088312A2
:10190A000313A1007008A0000A168A1190260A1271
:10191A008A15823083120313EC00DD30EB00EB0BE7
:10192A00942CEC0B942C0A168A1187260A128A1513
:10193A005230F4000030F5000A168A1199260A126C
:10194A008A150130F4000030F5000A168A1199262A
:10195A000A128A150A168A1190260A128A158230E4
:10196A0083120313EC00DD30EB00EB0BBA2CEC0B0B
:10197A00BA2C0A168A1187260A128A155330F400DD
:10198A000030F5000A168A1199260A128A150030C3
:10199A00F000F1000A168A11A0270A128A157108A6
:1019AA0083120313A3007008A2000A168A11902654
:1019BA000A128A15823083120313EC00DD30EB0021
:1019CA00EB0BE52CEC0BE52C0830F6001730F70092
:1019DA000230F800F9013130FA003230FB001330DE
:1019EA000A128A1150200A128A1500308312031330
:1019FA0005180130AB000A168A11BA260A128A158E
:101A0A00F401F40A01300A168A1161270A128A15AA
:101A1A006130F2008030F3000A128A15DF210A12BF
:101A2A008A150330F40002300A168A1161270A1255
:101A3A008A157530F2008030F3000A128A15DF2108
:101A4A000A128A150730F40001300A168A11612732
:101A5A000A128A156A30F2008030F3000A128A15D7
:101A6A00DF210A128A150C30F40001300A168A1195
:101A7A0061270A128A156630F2008030F3000A12D2
:101A8A008A15DF210A128A150A168A1187260A126E
:101A9A008A155130F4000030F5000A168A11992689
:101AAA000A128A150030F000F1000A168A11A027DE
:101ABA000A128A15710883120313A5007008A4007C
:101ACA000A168A1190260A128A1582308312031383
:101ADA00EC00DD30EB00EB0B702DEC0B702D0B30B6
:101AEA0083120313A6000030A7002508803AFF00DE
:101AFA0080307F02031D832D0B3024020318862DAC
:101B0A00872DC72D0A168A1187260A128A1551307F
:101B1A00F4000030F5000A168A1199260A128A156D
:101B2A000030F000F1000A168A11A0270A128A155D
:101B3A00710883120313A5007008A4000A168A11FB
:101B4A0090260A128A15823083120313EC00DD30C4
:101B5A00EB00EB0BAE2DEC0BAE2D83120313250815
:101B6A00803AFF0080307F02031DBD2D0B30240216
:101B7A000318C02DC12DC72D831203132508A700F2
:101B8A002408A60083120313A51BCC2DCD2DEB2D03
:101B9A002508803AFF0080307F02031DD62D0A30C7
:101BAA0024020318D92DDA2DEB2D0230F40002306D
:101BBA000A168A1161270A128A157830F2008030D3
:101BCA00F3000A128A15DF210A128A1583120313F7
:101BDA002508803AFF0080307F02031DF62D63300E
:101BEA002402031CF92DFA2D002E633083120313ED
:101BFA00A4000030A500F401F40A02300A168A1182
:101C0A0061270A128A156F3083120313D40025083C
:101C1A00D6002408D50043300A128A11F0200A128D
:101C2A008A154330F2000030F3000A128A15DF21C8
:101C3A000A128A150A168A1187260A128A1552303A
:101C4A00F4000030F5000A168A1199260A128A153C
:101C5A000030F400F5000A168A1199260A128A152C
:101C6A000A168A1190260A128A15823083120313E1
:101C7A00EC00DD30EB00EB0B402EEC0B402E0A168D
:101C8A008A1187260A128A155330F4000030F500AB
:101C9A000A168A1199260A128A150030F000F100F4
:101CAA000A168A11A0270A128A15710883120313C9
:101CBA00A1007008A0000A168A1190260A128A1535
:101CCA00823083120313EC00DD30EB00EB0B6B2E3A
:101CDA00EC0B6B2E831203132108803AFF0080302D
:101CEA007F02031D7A2E6430200203187D2E7E2E79
:101CFA009E2E0730F40002300A168A1161270A1252
:101D0A008A156E3083120313D4002108D6002008E6
:101D1A00D5002F300A128A11F0200A128A152F30A4
:101D2A00F2000030F3000A128A15DF210A128A151E
:101D3A00B52E0730F40002300A168A1161270A12FA
:101D4A008A156F3083120313D4002108D6002008A5
:101D5A00D5002F300A128A11F0200A128A15942E01
:101D6A000A168A1187260A128A155230F4000030A0
:101D7A00F5000A168A1199260A128A150130F4000A
:101D8A000030F5000A168A1199260A128A150A16CF
:101D9A008A1190260A128A15823083120313EC00E4
:101DAA00DD30EB00EB0BD72EEC0BD72E0A168A117F
:101DBA0087260A128A155330F4000030F5000A16F5
:101DCA008A1199260A128A150030F000F1000A16C3
:101DDA008A11A0270A128A15710883120313A30015
:101DEA007008A2000A168A1190260A128A158230F1
:101DFA0083120313EC00DD30EB00EB0B022FEC0B2C
:101E0A00022F0C30F40002300A168A1161270A12D6
:101E1A008A156F3083120313D4002308D6002208D0
:101E2A00D50039300A128A11F0200A128A1539307F
:101E3A00F2000030F3000A128A15DF210A128A150D
:101E4A008312031322032304031D2C2F2D2FD32FB8
:101E5A002D08031D312F322FD32F0A168A11BA26C5
:101E6A000A128A155230FA005130FB005030FC0039
:101E7A0053300A128A159E210A128A154E30FA0028
:101E8A004D30FB004F300A168A11CE270A128A15E6
:101E9A001C3083120313D4005308D500D601D51B76
:101EAA00D6035208D700D801D71BD8035108D90046
:101EBA00DA01D91BDA03B4300A128A11F0200A12A5
:101ECA008A15F401F40A01300A168A1161270A12E6
:101EDA008A15B430F2000030F3000A128A15DF21A5
:101EEA000A128A153D3083120313D4004F08D50015
:101EFA00D601D51BD6034E08D700D801D71BD80365
:101F0A004D08D900DA01D91BDA03B4300A128A1152
:101F1A00F0200A128A15F401F40A02300A168A110C
:101F2A0061270A128A15B430F2000030F3000A124F
:101F3A008A15DF210A128A150B3083120313D40083
:101F4A004F08D500D601D51BD6034E08D700D801B5
:101F5A00D71BD8034D08D900DA01D91BDA03A03000
:101F6A000A128A11F0200A128A15A0300A168A115A
:101F7A0018270A128A15153083120313ED004B3005
:101F8A00EC00BD30EB00EB0BC82FEC0BC82FED0BB0
:101F9A00C82FCF2F83120313AD01AD0A2D30D40001
:101FAA002508D6002408D5002108D8002008D70023
:101FBA002308DA002208D900A0300A128A11F02078
:101FCA000A128A15A0300A168A1118270A128A15C7
:101FDA00831203132708803AFF0080307F02031D13
:101FEA00F82F0B3026020318FD2F0A128A114D2BE7
:061FFA000A128A113C2DC1
:102CEC0064008001840A0406031900340406772E5C
:102CFC000A168A11AD260A168A118316031391142B
:102D0C0008000A168A11AD260A168A1183160313B7
:102D1C00111408000A168A11AD260A168A11831698
:102D2C000313111508000A168A11AD260A168A110A
:102D3C0074088312031393000800F000831203132A
:102D4C000C1EA92EAA2EA42E70089900080083161A
:102D5C0003131419B22EB32EAD2E11081F39031DF7
:102D6C00B82EB92EAD2E080001300A168A1147274D
:102D7C000A168A110630F5003030F400F40BC42E1C
:102D8C00F50BC42E00000800F10083120313091484
:102D9C0071080A128A1560210A168A11831203130C
:102DAC000915D82E8312031309110800F100F00144
:102DBC003A3071020318E32EE42EEC2E30307102FF
:102DCC00031CE92EEA2EEC2EF001F00A700C080020
:102DDC007E088A007F0882000A168A11EE260A16DF
:102DEC008A118000840A04087D0603190034FF0A46
:102DFC000319FE0AF22EF1007108F300F2010A30F9
:102E0C007302031C0A2F0B2F122F0A30F3021030FF
:102E1C00F0007008F207052F7308F0007008F20735
:102E2C0072080800F200262F7208840000080A16A7
:102E3C008A11A3260A168A110130F1007108F207D3
:102E4C007208840083130008031D2D2F2E2F1A2FB8
:102E5C000800F2007208F3000310F30C7830F00055
:102E6C007008F3057308F00002300310F00CFF3EFD
:102E7C00031D3B2F72080F397007F100730871079F
:102E8C000800F30083120313091073080A128A1541
:102E9C0060210A168A118312031309150B30F200F4
:102EAC006230F100F10B582FF20B582F00008312F7
:102EBC00031309110800F6007603031D662F672F14
:102ECC006B2F74087F3EF500742F02307606031DBD
:102EDC00702F712F742F7408BF3EF50075080A16F9
:102EEC008A1147270A168A110800F401F501701C93
:102EFC00802F812F872F7208F4070318F50A7308A7
:102F0C00F50701300310F20DF30DFF3E031D882F62
:102F1C0001300310F10CF00CFF3E031D8F2F7008D5
:102F2C007104031D9A2F9B2F7D2F7508F1007408D7
:102F3C00F00008000A168A11AD260A168A118316AB
:102F4C00031391150A168A11AD260A168A118312DB
:102F5C0003131308F200F3017208F4007308F50070
:102F6C000A168A11AD260A168A1170037104031D04
:102F7C00C02FC12FC52F831603139112C82F831690
:102F8C000313911611167508F1007408F00008006F
:102F9C00FC007B08840000300A128A15EC200A160B
:102FAC008A117F390A168A112F270A168A11831360
:102FBC0080007A08840001300A128A15EC200A1667
:102FCC008A117F390A168A112F270A168A11831340
:102FDC0080007C08840002300A128A15EC200A1644
:102FEC008A113F390A168A112F270A168A11831360
:042FFC008000080049
:08400000FF3FFF3FFF3FFF3FC0
:04400E00D420FF3F7C
:00000001FF
